:100000000C945E000C9486000C9486000C94860080
:100010000C9486000C9486000C9486000C94860048
:100020000C9486000C9486000C9486000C94860038
:100030000C9486000C9486000C9486000C94860028
:100040000C9444010C9486000C9486000C94860059
:100050000C9486000C9486000C9486000C94860008
:100060000C9486000C948600000000080002010039
:100070000003040700000000000000000000000072
:10008000250028002B0000000000240027002A0083
:10009000040404040404040402020202020203032E
:1000A0000303030301020408102040800102040836
:1000B00010200102040810208E029C0211241FBE91
:1000C000CFEFD8E0DEBFCDBF21E0A0E1B1E001C0BD
:1000D0001D92A732B207E1F711E0A0E0B1E0E4ED34
:1000E000F9E002C005900D92A031B107D9F710E0F8
:1000F000CDE5D0E004C02197FE010E94DC02CC35A2
:10010000D107C9F70E948E010C94DD040C94000005
:1001100090E0FC01EC55FF4F249180579F4FFC016C
:100120008491882399F090E0880F991FFC01EA5789
:10013000FF4FA591B491FC01E458FF4F8591949134
:100140008FB7F894EC91E22BEC938FBF089590E079
:10015000FC01E859FF4F2491FC01EC55FF4F34910D
:10016000FC01E057FF4FE491EE23C9F0222339F060
:10017000233001F1A8F4213019F1223029F1F0E007
:10018000EE0FFF1FE458FF4FA591B4918FB7F8947D
:10019000EC91611126C030953E233C938FBF0895AA
:1001A0002730A9F02830C9F0243049F78091800029
:1001B0008F7D03C0809180008F7780938000DFCF98
:1001C00084B58F7784BDDBCF84B58F7DFBCF8091E5
:1001D000B0008F778093B000D2CF8091B0008F7D38
:1001E000F9CF3E2BDACF0F931F93CF93DF938C0180
:1001F000EB0180911D0190911E01009739F0209133
:100200001F013091200126173707B8F4BE016F5F38
:100210007F4F0E9407040097E1F090931E018093A6
:100220001D01D0932001C0931F0120912101309125
:100230002201232B11F4FC011082D0932201C093E0
:100240002101B80180911D0190911E010E94D604E8
:1002500014C080911D0190911E01009711F00E9421
:100260007E0310921E0110921D0110922201109225
:1002700021011092200110921F018DE191E0DF9188
:10028000CF911F910F9108951F920F920FB60F9269
:1002900011242F933F938F939F93AF93BF9380919C
:1002A000150190911601A0911701B091180130919C
:1002B000140123E0230F2D3758F50196A11DB11D20
:1002C000209314018093150190931601A0931701B8
:1002D000B09318018091100190911101A091120129
:1002E000B09113010196A11DB11D8093100190934F
:1002F0001101A0931201B0931301BF91AF919F918F
:100300008F913F912F910F900FBE0F901F901895D6
:1003100026E8230F0296A11DB11DD2CF789484B593
:10032000826084BD84B5816084BD85B5826085BDF1
:1003300085B5816085BD80916E00816080936E007F
:100340001092810080918100826080938100809171
:100350008100816080938100809180008160809322
:1003600080008091B10084608093B1008091B000E2
:1003700081608093B00080917A00846080937A00DD
:1003800080917A00826080937A0080917A00816007
:1003900080937A0080917A00806880937A0010922E
:1003A000C10082E00E94880083E00E94880084E00F
:1003B0000E94880085E00E94880086E00E948800F4
:1003C00087E00E94880088E00E94880089E00E94FF
:1003D00088008AE00E9488008BE00E9488008CE000
:1003E0000E9488008DE00E94880002E010E080E01A
:1003F000E82E80E0F82E8FB7F89480901501909049
:100400001601A0901701B09018018FBF1093010141
:1004100000930001C0910001D0910101CE30D105BF
:100420000CF075C08091210190912201892B09F473
:1004300068C068E071E080911D0190911E010E94EA
:10044000CD04892B69F561E08C2F0E94A700809173
:10045000190190911A01A0911B01B0911C01A501F5
:100460009401281B390B4A0B5B0BDA01C901843F4D
:100470009140A105B10574F063E070E08BE091E07C
:100480000E94F3008092190190921A01A0921B0120
:10049000B0921C018091210190912201892B89F158
:1004A0006BE071E080911D0190911E010E94CD04CE
:1004B000892B39F560E08C2F0E94A70080911901EB
:1004C00090911A01A0911B01B0911C01A50194010A
:1004D000281B390B4A0B5B0BDA01C901843F9140A1
:1004E000A105B10574F062E070E088E091E00E943F
:1004F000F3008092190190921A01A0921B01B09210
:100500001C012196D0930101C093000183CFE11417
:10051000F10409F470CF0E9400006DCFEDE1F1E02D
:1005200011821082138212821582148262E070E0BE
:1005300088E091E00C94F30080911D0190911E01E0
:10054000009711F00C947E0308952F923F924F92E2
:100550005F926F927F928F929F92AF92BF92CF9253
:10056000DF92EF92FF920F931F93CF93DF93CDB75C
:10057000DEB7CA1BDB0B0FB6F894DEBF0FBECDBFD4
:1005800009942A88398848885F846E847D848C84A5
:100590009B84AA84B984C884DF80EE80FD800C81AE
:1005A0001B81AA81B981CE0FD11D0FB6F894DEBF91
:1005B0000FBECDBFED010895EE0FFF1F0590F49122
:1005C000E02D09940F931F93CF93DF938230910511
:1005D00010F482E090E0E0912501F091260130E0F6
:1005E00020E0B0E0A0E0309799F42115310509F43E
:1005F0004AC0281B390B24303105D8F58A819B81EC
:100600006115710589F1FB0193838283FE0111C09D
:10061000408151810281138148175907E0F0481742
:10062000590799F4109761F012960C93129713964C
:100630001C933296CF01DF91CF911F910F910895B6
:100640000093250110932601F4CF2115310551F0B7
:100650004217530738F0A901DB019A01BD01DF0100
:10066000F801C1CFEF01F9CF9093260180932501C6
:10067000CDCFFE01E20FF31F8193919322503109F8
:1006800039832883D7CF2091230130912401232B54
:1006900041F420910401309105013093240120930D
:1006A000230120910201309103012115310541F40C
:1006B0002DB73EB74091060150910701241B350B21
:1006C000E0912301F0912401E217F307A0F42E1B1F
:1006D0003F0B2817390778F0AC014E5F5F4F2417A6
:1006E000350748F04E0F5F1F5093240140932301BC
:1006F000819391939FCFF0E0E0E09CCFCF93DF9385
:100700000097E9F0FC01329713821282A091250133
:10071000B0912601ED0130E020E01097A1F4208196
:100720003181820F931F20912301309124012817DA
:10073000390709F061C0F0932401E0932301DF91B0
:10074000CF910895EA01CE17DF07E8F54A815B8172
:100750009E0141155105B1F7E901FB83EA834991F7
:100760005991C40FD51FEC17FD0761F48081918169
:100770000296840F951FE901998388838281938172
:100780009B838A83F0E0E0E012968D919C91139711
:100790000097B9F52D913C911197CD010296820FEA
:1007A000931F20912301309124012817390739F62E
:1007B000309751F51092260110922501B093240133
:1007C000A0932301BCCFD383C28340815181840F86
:1007D000951FC817D90761F44E5F5F4F88819981D3
:1007E000480F591F518340838A819B819383828361
:1007F0002115310509F0B0CFF0932601E0932501D2
:100800009ECFFD01DC01C0CF13821282D7CFB0E0B2
:10081000A0E0EDE0F4E00C94A7028C01009751F405
:10082000CB010E94E2028C01C801CDB7DEB7E0E146
:100830000C94C302FC01E60FF71F9C012250310902
:10084000E217F30708F49DC0D901CD91DC9111970F
:10085000C617D70798F0C530D10530F3CE010497FD
:100860008617970708F3C61BD70B2297C193D1931E
:100870006D937C93CF010E947E03D6CF5B01AC1AAF
:10088000BD0A4C018C0E9D1EA0912501B091260140
:10089000512C412CF12CE12C109731F58091230142
:1008A000909124018815990509F05CC046165706F9
:1008B00008F058C08091020190910301009741F423
:1008C0008DB79EB74091060150910701841B950B8F
:1008D000E817F90708F055C0F0932401E0932301CD
:1008E000F90171836083A0CF8D919C91119712962D
:1008F0006C90129713967C901397A815B90559F52B
:100900006C0142E0C40ED11CCA14DB0420F1AC011E
:100910004A195B09DA011296159780F06282738298
:1009200051834083D9016D937C93E114F10471F0FC
:10093000D7011396FC93EE93129776CF22968C0FE5
:100940009D1FF90191838083F301EFCFF09326017E
:10095000E093250169CF4816590608F42C017D0162
:10096000D3019ACFCB010E94E2027C01009749F0AB
:10097000AE01B8010E94C404C8010E947E03870131
:1009800053CF10E000E050CFFB01DC0102C001902A
:100990000D9241505040D8F70895FB01DC018D9134
:1009A000019080190110D9F3990B0895FB01DC0126
:1009B00001900D920020E1F7089510E0CDE5D0E020
:1009C00004C0FE010E94DC022196CE35D107C9F792
:0409D000F894FFCFC9
:1009D40003000000270180004F4E004F46460000F0
:107E0000112484B714BE81FFF0D085E080938100F7
:107E100082E08093C00088E18093C10086E0809377
:107E2000C20080E18093C4008EE0C9D0259A86E02C
:107E300020E33CEF91E0309385002093840096BBD3
:107E4000B09BFECF1D9AA8958150A9F7CC24DD24C4
:107E500088248394B5E0AB2EA1E19A2EF3E0BF2EE7
:107E6000A2D0813461F49FD0082FAFD0023811F036
:107E7000013811F484E001C083E08DD089C08234E0
:107E800011F484E103C0853419F485E0A6D080C0E4
:107E9000853579F488D0E82EFF2485D0082F10E0AE
:107EA000102F00270E291F29000F111F8ED06801E7
:107EB0006FC0863521F484E090D080E0DECF843638
:107EC00009F040C070D06FD0082F6DD080E0C81688
:107ED00080E7D80618F4F601B7BEE895C0E0D1E017
:107EE00062D089930C17E1F7F0E0CF16F0E7DF06D8
:107EF00018F0F601B7BEE89568D007B600FCFDCFD4
:107F0000A601A0E0B1E02C9130E011968C91119780
:107F100090E0982F8827822B932B1296FA010C0160
:107F200087BEE89511244E5F5F4FF1E0A038BF0790
:107F300051F7F601A7BEE89507B600FCFDCF97BE46
:107F4000E89526C08437B1F42ED02DD0F82E2BD052
:107F50003CD0F601EF2C8F010F5F1F4F84911BD097
:107F6000EA94F801C1F70894C11CD11CFA94CF0C13
:107F7000D11C0EC0853739F428D08EE10CD085E9AC
:107F80000AD08FE07ACF813511F488E018D01DD067
:107F900080E101D065CF982F8091C00085FFFCCF94
:107FA0009093C60008958091C00087FFFCCF809118
:107FB000C00084FD01C0A8958091C6000895E0E648
:107FC000F0E098E1908380830895EDDF803219F02E
:107FD00088E0F5DFFFCF84E1DECF1F93182FE3DFCA
:107FE0001150E9F7F2DF1F91089580E0E8DFEE27F6
:047FF000FF270994CA
:027FFE00040479
:0400000300007E007B
:00000001FF
